:020000040000FA
:0600000040EF01F01200C8
:020006000000F8
:08000800D9CFE6FFE1CFD9FFDB
:10001000020EE126DE6ADD6ADECF02F0DDCF03F0FC
:10002000D890035004E62B0E025C000E035805E244
:10003000DF2A010E01E3DB2AEFD7DE6ADD6ADE6A22
:10004000DD6A020EE15C02E2E16AE552E16EE55230
:10005000E7CFD9FF1200D9CFE6FFE1CFD9FF020EDB
:10006000E126DE6ADD6ADECF02F0DDCF03F0D89054
:10007000035004E6150E025C000E035805E2DF2A69
:10008000010E01E3DB2AEFD7DE6ADD6ADE6ADD6A94
:10009000020EE15C02E2E16AE552E16EE552E7CF71
:1000A000D9FF1200D9CFE6FFE1CFD9FF020EE1263A
:1000B000829CAADFDE6ADD6ADECF02F0DDCF03F0CC
:1000C000D890035004E6080E025C000E035813E2B9
:1000D000FE0EDB50E8B0828CE8A0829CFE0EDB4076
:1000E0007F0BE76EFE0EE7CFDBFF8EDFDF2A010E10
:1000F00001E3DB2AE1D7828C87DF020EE15C02E2BA
:10010000E16AE552E16EE552E7CFD9FF1200D9CF9F
:10011000E6FFE1CFD9FF040EE12682BEFED79BDFCA
:1001200082BE36D071DFDE6ADD6ADECF02F0DDCF5F
:1001300003F0D890035004E6070E025C000E03584B
:1001400023E28250800B01E0010EE76E030EE7CF41
:10015000DBFFDB50800D030EF3CFDBFFDBCFE6FFD1
:10016000020EDB50E552E710E76E020EE7CFDBFF31
:10017000DB407F0BE76E020EE7CFDBFF45DFDF2AB8
:10018000010E01E3DB2AD1D73FDF020EDB5000D0A6
:10019000026E040EE15C02E2E16AE552E16E025099
:1001A000E552E7CFD9FF1200BE0E946E828C2CDF91
:1001B000AEDF00016A6F6AC0E6FF74DFE552F8D770
:0201C00012002B
:0E01C200060EF66E000EF76E000EF86E0001CF
:1001D0000900F550656F0900F550666F03E165672A
:1001E00001D03DD00900F550606F0900F550616FF6
:1001F0000900F550626F09000900F550E96E090029
:10020000F550EA6E090009000900F550636F090016
:10021000F550646F09000900F6CF67F0F7CF68F07A
:10022000F8CF69F060C0F6FF61C0F7FF62C0F8FF69
:100230000001635302E1645307E00900F550EE6EDC
:100240006307F8E26407F9D767C0F6FF68C0F7FFF5
:1002500069C0F8FF00016507000E665BBFD712009A
:10026000000EF36E00EE00F0080E01D81200EA60F6
:1002700002D0EE6AFCD7F350E9601200EE6AFCD7B8
:1002800013EE00F023EE00F0F86A019CE1EC00F0C0
:0C0290004EEC01F0D4EC00F0FBD71200A3
:02029C0012004E
:020000040030CA
:010001000CF2
:010002001FDE
:010003001EDE
:0100050001F9
:010006008178
:00000001FF
