:0400000008EF0AF00B
:100800000001000A006400E80310272564000000CE
:10081000C204D8A4B3D0D70E0F6E230E106E410EB3
:10082000116EC3CF01F0C4CF02F0000E046E050EAE
:10083000036EAAEC09F001C009F002C00AF0CFEC87
:1008400009F009C00CF00AC00DF00BC00EF078ECF6
:1008500007F00CC01BF00DC01CF00EC01DF084ECA6
:1008600006F01BC04BF01CC04CF0D70E3F6E230EA1
:10087000406E410E416EC3CF01F0C4CF02F0000EB6
:10088000046E050E036EAAEC09F001C009F002C067
:100890000AF0CFEC09F009C03CF00AC03DF00BC0F3
:1008A0003EF042EC08F03CC048F03DC049F03EC08C
:1008B0004AF048C01BF049C01CF04AC01DF084EC4F
:1008C00006F01BC05EF01CC05FF05FBE0AD05F5038
:1008D00004E1040E5E5CD8A004D0000E5F6E050E2D
:1008E00003D0000E5F6E000E5E6E4F0E0D6E000E9A
:1008F0000E6E0B0E0F6E080E106E4BC011F04CC03A
:1009000012F0E0EC05F0540E0D6E000E0E6E0B0EA4
:100910000F6E080E106E5EC011F05FC012F0E0ECBA
:1009200005F0200E17EC0AF0200E17EC0AF0540E1A
:1009300017EC0AF03D0E17EC0AF04F5017EC0AF0D6
:10094000505017EC0AF0515017EC0AF0525017ECC7
:100950000AF02E0E17EC0AF0545017EC0AF055501E
:1009600017EC0AF0565017EC0AF0575017EC0AF043
:10097000200E17EC0AF092EC09F01200C3CF09F038
:10098000C4CF0AF0CFEC09F009C00CF00AC00DF09A
:100990000BC00EF0B90E0F6E890E106E3E0E116E6A
:1009A000FEEC06F00CC045F00DC046F00EC047F05E
:1009B00045C01BF046C01CF047C01DF084EC06F09B
:1009C0001BC04DF01CC04EF0590E0D6E000E0E6E89
:1009D0000B0E0F6E080E106E4DC011F04EC012F0CF
:1009E000E0EC05F0560E17EC0AF03D0E17EC0AF09D
:1009F000595017EC0AF05A5017EC0AF05B5017ECFC
:100A00000AF05C5017EC0AF02E0E17EC0AF092EC8C
:100A100009F0120020C024F0256A266A1F3424360B
:100A200001E325802450296E23C024F0256A266A1C
:100A30002234243601E325802450286E2950D8B46E
:100A40000BD02850295CD8B00ED02950000828249B
:100A5000246E180E246407D021C01EF022C01FF09F
:100A600023C020F012002850D8B40BD02950285CA5
:100A7000D8B00ED0285000082924246E180E246403
:100A800007D01EC01EF01FC01FF020C020F01200B3
:100A9000060E276E20BE278E23BE278C1F8EFF0ECC
:100AA0001E16FF0E1F16000E2016228EFF0E211698
:100AB000FF0E2216000E23162850295CD8B01BD03A
:100AC000D890213622362336280629502818D8B443
:100AD0000DD0270627C024F0070E2416D8B406D060
:100AE000EFD7D89020321F321E32292A28502918D9
:100AF000D8B41FD0F6D72950285CD8B01AD0D890D7
:100B00001E361F362036290629502818D8B40DD095
:100B1000270627C024F0070E2416D8B406D0EFD736
:100B2000D890233222322132282A28502918D8A4DA
:100B3000F7D727AE0CD0FF0E1E1AFF0E1F1AFF0E9E
:100B4000201A010E1E26000E1F22000E202227ACA6
:100B50000CD0FF0E211AFF0E221AFF0E231A010ECF
:100B60002126000E2222000E2322000E276E1E5088
:100B700021261F5022222050232223AE0ED0FF0E0A
:100B8000211AFF0E221AFF0E231A010E2126000E33
:100B90002222000E2322010E276E21C001F022C066
:100BA00002F023C003F029C004F027C005F0EBECED
:100BB00007F001C01EF002C01FF003C020F01200B9
:100BC000110E146E000E156E8CD0250E1A18D8B4A6
:100BD00009D00DC0D9FF0EC0DAFF1AC0DFFF0D4AE1
:100BE0000E2A7FD0000E166E0FC0F6FF10C0F7FF62
:100BF0000F4A102A0800F5CF1AF01A50000AD8B48C
:100C00007CD0640AD8B403D00D0AD8A46AD014C02A
:100C1000D9FF15C0DAFFDECF18F0DDCF19F0020ED4
:100C20001426000E152219AE06D0030E1612186CEB
:100C3000191ED8B0192A010E1A6E050E1A18D8B44A
:100C400012D01A50020D010EF324F66E080EF42095
:100C5000F76E0900F550185C0900F5501958D8A036
:100C600002D01A2AEAD716C013F0030E1316D8B40E
:100C700008D00DC0D9FF0EC0DAFF2D0EDF6E0D4A71
:100C80000E2A1AC017F029D01750020D010EF324B6
:100C9000F66E080EF420F76E0900F5CF03F00A0097
:100CA000F5CF04F018C001F019C002F048EC09F0CB
:100CB00001C008F002C009F0000E0B6E0A0E0A6EA9
:100CC00071EC09F00850300F1A6E0DC0D9FF0EC03C
:100CD000DAFF1AC0DFFF0D4A0E2A17061728D8A41C
:100CE000D3D70FC0F6FF10C0F7FF0F4A102A080035
:100CF000F5CF1AF01A50D8A468D70DC0D9FF0EC08E
:100D0000DAFF000EDF6E12001DC01FF0206A216A9C
:100D10001C341F3601E320801F50296E2950D8A4AF
:100D200009D0000E1B6E000E1C6E000E1D6E000E14
:100D30001E6E1200170E1F6E1BC020F01CC021F08B
:100D40001DC022F01F28236E04D0D89022322132F9
:100D50002032232EFAD72050246E1C8EFF0E1B1635
:100D6000FF0E1C16000E1D161B50256E1C50266E05
:100D70001D50276E286A8E0E295E29AE16D0295086
:100D8000800A8F0FD8B009D0000E1B6E000E1C6EAB
:100D9000000E1D6E000E1E6E1200D89028322732F3
:100DA00026322532293EF9D715D0170E29640FD0E7
:100DB000000E1B6E000E1C6E000E1D6E000E1E6ED1
:100DC0001200D8902536263627362836290629508F
:100DD000D8A4F7D72450D8B408D0281E271E261E22
:100DE000256C000E26222722282225C01BF026C0B3
:100DF0001CF027C01DF028C01EF012000EC012F01B
:100E0000136A146A0D34123601E313801250156E02
:100E10001550D8A407D0000E0C6E000E0D6E000EFB
:100E20000E6E120011C012F0136A146A10341236DA
:100E300001E3138012501A6E1A50D8A407D0000E86
:100E40000C6E000E0D6E000E0E6E12001A507B0F0F
:100E500015260EC01AF011501A1A800E1A160D8E91
:100E6000108EFF0E0F16FF0E1016000E1116000E3C
:100E7000166E000E176E000E186E070E196E0CA07F
:100E800006D00F5016261050172211501822D89055
:100E90000E320D320C32D8900F3610361136192E14
:100EA000EED7090E196E0CA006D00F501626105062
:100EB000172211501822D8900E320D320C32D890D1
:100EC000183217321632192EEED716C001F017C09D
:100ED00002F018C003F015C004F01AC005F0EBECE6
:100EE00007F001C00CF002C00DF003C00EF01200BC
:100EF0000EC012F0136A146A0D34123601E3138027
:100F00001250196E1950D8A407D0000E0C6E000EA6
:100F10000D6E000E0E6E120011C012F0136A146AEC
:100F20001034123601E3138012501A6E1A50D8A4EE
:100F300007D0000E0C6E000E0D6E000E0E6E12002D
:100F4000000E166E000E176E000E186E1A50890FE6
:100F5000195E0EC01AF011501A1A800E1A160D8E54
:100F6000FF0E0C16FF0E0D16000E0E16108EFF0E45
:100F70000F16FF0E1016000E1116180E156ED890D3
:100F80001636173618360F500C5C10500D5811508D
:100F90000E58D8A007D00F500C5E10500D5A1150AB
:100FA0000E5A1680D8900C360D360E36152EE7D711
:100FB00016C001F017C002F018C003F019C004F009
:100FC0001AC005F0EBEC07F001C00CF002C00DF008
:100FD00003C00EF012000450D8B405D00150021026
:100FE0000310D8A40CD0000E016E000E026E000E8D
:100FF000036E1200042AD890033202320132000E2E
:101000000114066E000E0214076EFE0E0314086E25
:10101000065007100810D8B40CD0ECD7042A010EE3
:101020000126000E0222000E0322D8900332023263
:101030000132000E0114066E000E0214076EFF0E40
:101040000314086E065007100810D8B406D0E6D76F
:101050000406D89001360236033602BE03D0020ED3
:101060000460F6D704A0029ED89004320450031204
:101070000550D8A4038E01C001F002C002F003C0E5
:1010800003F012003CC00CF03DC00DF03EC00EF06D
:101090003FC00FF040C010F041C011F078EC07F0F5
:1010A0000CC042F00DC043F00EC044F042C034F01A
:1010B00043C035F044C036F08FEC08F034C042F045
:1010C00035C043F036C044F03FC00FF040C010F0D0
:1010D00041C011F042C00CF043C00DF044C00EF00E
:1010E000FEEC06F00CC01BF00DC01CF00EC01DF095
:1010F000BDEC09F01BC01EF01CC01FF01DC020F08D
:101100003CC021F03DC022F03EC023F00AEC05F0C7
:101110001EC03CF01FC03DF020C03EF0120034C0A5
:1011200001F035C002F036C003F03A0E046E000E36
:10113000056ED0EC08F03BAE07D0000E346E000E0A
:10114000356E000E366E12003B5004E1150E3A5C0F
:10115000D8A007D034C034F035C035F036C036F0F2
:10116000120034C01BF035C01CF036C01DF084ECFA
:1011700006F01BC02AF01CC02BF01DC02CF01EC0B6
:101180002DF00CEC09F02AC037F02BC038F02CC041
:1011900039F037C034F038C035F039C036F01200BD
:1011A000015002100310D8A409D004C0D9FF05C013
:1011B000DAFF000EDE6E000EDD6E120003507F0BB4
:1011C000066E076AD8900636073604C0D9FF05C0F8
:1011D000DAFF06C0DEFF07C0DDFF02AE03D0066AFD
:1011E000062A01D0066A065004C0D9FF05C0DAFFFE
:1011F000DE12000EDD1204C0D9FF05C0DAFF820E38
:10120000DE26FF0EDD22038003820384038603882B
:10121000038A039C029E1200000E336E8E0E326E05
:101220002DAE11D02D1E2C1E2B1E2A6C000E2B2233
:101230002C222D22010E336E06D0D8902D322C3266
:101240002B322A32322A000E2A142E6E000E2B1454
:101250002F6E000E2C14306EFF0E2D14316E2E509A
:101260002F1030103110D8A4E8D72AC001F02BC0BD
:1012700002F02CC003F032C004F033C005F0EBECF8
:1012800007F001C02AF002C02BF003C02CF01200BE
:10129000000E066E000E056E03500410D8B41CD06C
:1012A000010E076E04D0D89003360436072A04AE28
:1012B000FAD7D890053606360350015C0450025820
:1012C000D8A005D00350015E0450025A0580D89082
:1012D00004320332072EEDD705C001F006C002F03C
:1012E00012000A500B10D8B418D0010E0C6E04D0A6
:1012F000D8900A360B360C2A0BAEFAD70A50085C87
:101300000B500958D8A004D00A50085E0B50095A57
:10131000D8900B320A320C2EF1D708C008F009C061
:1013200009F01200000E026E000E016E02BE06D021
:10133000025007E1C80E015CD8B003D0014A022A6E
:10134000F5D7000E026E000E016E000E026E000E4A
:10135000016E120001500302F3CF05F0F4CF06F046
:1013600001500402F350062602500302F3500626F1
:1013700005C001F006C002F012001B501C101D1029
:10138000D8B406D0000E1B1A000E1C1A800E1D1AAF
:101390001BC01BF01CC01CF01DC01DF0120009C0BA
:1013A00001F00AC002F0036A8E0E046E000E056E94
:1013B000EBEC07F001C009F002C00AF003C00BF02B
:1013C000120092809282C292F1EC09F010EC0AF0C5
:1013D000C282C282C2B2FED708EC04F0FFEC09F070
:1013E000F7D7949C948E240EAC6E900EAB6EB8869C
:1013F000670EAF6ED08EF28E9D8A9F8A1200C20455
:10140000D8A403D0050EC26E1200010EC26E1200E7
:101410000001616B606B000EF86E0001E1EF09F0F6
:10142000950EC06E0D0EC16E010EC26E1200016EE1
:0A14300001C0ADFF9EB81200FDD709
:020000040020DA
:08000000FFFFFFFFFFFFFFFF00
:020000040030CA
:0E000000000C1F1EFF0181FF0FC00FE00F401C
:00000001FF
