:04000000FCEF09F018
:0F0800000001000A006400E803102725640000CF
:10081000C204D8A4B3D0D70E0F6E230E106E410EB3
:10082000116EC3CF01F0C4CF02F0000E046E050EAE
:10083000036EAEEC09F001C009F002C00AF0D3EC7F
:1008400009F009C00CF00AC00DF00BC00EF069EC05
:1008500007F00CC01BF00DC01CF00EC01DF075ECB5
:1008600006F01BC048F01CC049F0D70E3F6E230EA7
:10087000406E410E416EC3CF01F0C4CF02F0000EB6
:10088000046E050E036EAEEC09F001C009F002C063
:100890000AF0D3EC09F009C03CF00AC03DF00BC0EF
:1008A0003EF033EC08F03CC045F03DC046F03EC0A1
:1008B00047F045C01BF046C01CF047C01DF075EC6A
:1008C00006F01BC05BF01CC05CF05CBE0AD05C5044
:1008D00004E1040E5B5CD8A004D0000E5C6E050E33
:1008E00003D0000E5C6E000E5B6E4C0E136E000E9D
:1008F000146E0B0E156E080E166E48C017F049C028
:1009000018F0D1EC05F0510E136E000E146E0B0EA4
:10091000156E080E166E5BC017F05CC018F0D1ECB7
:1009200005F0200E0AEC0AF0200E0AEC0AF0540E34
:100930000AEC0AF03D0E0AEC0AF04C500AEC0AF000
:100940004D500AEC0AF04E500AEC0AF04F500AECF7
:100950000AF02E0E0AEC0AF051500AEC0AF052503E
:100960000AEC0AF053500AEC0AF054500AEC0AF070
:10097000200E0AEC0AF083EC09F01200C3CF01F05C
:10098000C4CF02F0050E046EC80E036EAEEC09F083
:1009900001C007F002C008F0030E0A6E096839ECC6
:1009A00009F007C04AF008C04BF0560E136E000E57
:1009B000146E0B0E156E080E166E4AC017F04BC063
:1009C00018F0D1EC05F0560E0AEC0AF03D0E0AECD8
:1009D0000AF056500AEC0AF057500AEC0AF0585048
:1009E0000AEC0AF059500AEC0AF02E0E0AEC0AF052
:1009F00083EC09F012001DC021F0226A236A1C3426
:100A0000213601E322802150266E20C021F0226A87
:100A1000236A1F34213601E322802150256E26509F
:100A2000D8B40BD02550265CD8B00ED02650000884
:100A30002524216E180E216407D01EC01BF01FC094
:100A40001CF020C01DF012002550D8B40BD0265049
:100A5000255CD8B00ED0255000082624216E180E33
:100A6000216407D01BC01BF01CC01CF01DC01DF072
:100A70001200060E246E1DBE248E20BE248C1C8EF9
:100A8000FF0E1B16FF0E1C16000E1D161F8EFF0EEE
:100A90001E16FF0E1F16000E20162550265CD8B01D
:100AA0001BD0D8901E361F36203625062650251816
:100AB000D8B40DD0240624C021F0070E2116D8B4D6
:100AC00006D0EFD7D8901D321C321B32262A255073
:100AD0002618D8B41FD0F6D72650255CD8B01AD027
:100AE000D8901B361C361D36260626502518D8B43D
:100AF0000DD0240624C021F0070E2116D8B406D04C
:100B0000EFD7D89020321F321E32252A25502618C2
:100B1000D8A4F7D724AE0CD0FF0E1B1AFF0E1C1A58
:100B2000FF0E1D1A010E1B26000E1C22000E1D2298
:100B300024AC0CD0FF0E1E1AFF0E1F1AFF0E201A37
:100B4000010E1E26000E1F22000E2022000E246E13
:100B50001B501E261C501F221D50202220AE0ED0DE
:100B6000FF0E1E1AFF0E1F1AFF0E201A010E1E2660
:100B7000000E1F22000E2022010E246E1EC001F066
:100B80001FC002F020C003F026C004F024C005F00E
:100B9000DCEC07F001C01BF002C01CF003C01DF02C
:100BA0001200170E1A6E000E1B6E8CD0250E201828
:100BB000D8B409D013C0D9FF14C0DAFF20C0DFFFBA
:100BC000134A142A7FD0000E1C6E15C0F6FF16C003
:100BD000F7FF154A162A0800F5CF20F02050000A2A
:100BE000D8B47CD0640AD8B403D00D0AD8A46AD093
:100BF0001AC0D9FF1BC0DAFFDECF1EF0DDCF1FF019
:100C0000020E1A26000E1B221FAE06D0030E1C1267
:100C10001E6C1F1ED8B01F2A010E206E050E201854
:100C2000D8B412D02050020D010EF324F66E080E37
:100C3000F420F76E0900F5501E5C0900F5501F58AE
:100C4000D8A002D0202AEAD71CC019F0030E19162A
:100C5000D8B408D013C0D9FF14C0DAFF2D0EDF6E50
:100C6000134A142A20C01DF029D01D50020D010E78
:100C7000F324F66E080EF420F76E0900F5CF09F0A4
:100C80000A00F5CF0AF01EC007F01FC008F039ECCB
:100C900009F007C00EF008C00FF0000E116E0A0E2A
:100CA000106E62EC09F00E50300F206E13C0D9FFA9
:100CB00014C0DAFF20C0DFFF134A142A1D061D28C6
:100CC000D8A4D3D715C0F6FF16C0F7FF154A162AC9
:100CD0000800F5CF20F02050D8A468D713C0D9FF62
:100CE00014C0DAFF000EDF6E12001DC01FF0206A74
:100CF000216A1C341F3601E320801F50296E2950C1
:100D0000D8A409D0000E1B6E000E1C6E000E1D6EC6
:100D1000000E1E6E1200170E1F6E1BC020F01CC0AE
:100D200021F01DC022F01F28236E04D0D89022325B
:100D300021322032232EFAD72050246E1C8EFF0E33
:100D40001B16FF0E1C16000E1D161B50256E1C5088
:100D5000266E1D50276E286A8E0E295E29AE16D08B
:100D60002950800A8F0FD8B009D0000E1B6E000EDC
:100D70001C6E000E1D6E000E1E6E1200D8902832E2
:100D8000273226322532293EF9D715D0170E29648D
:100D90000FD0000E1B6E000E1C6E000E1D6E000E9E
:100DA0001E6E1200D890253626362736283629069C
:100DB0002950D8A4F7D72450D8B408D0281E271E0D
:100DC000261E256C000E26222722282225C01BF075
:100DD00026C01CF027C01DF028C01EF012000BC05A
:100DE0000FF0106A116A0A340F3601E310800F50B9
:100DF000126E1250D8A407D0000E096E000E0A6EB3
:100E0000000E0B6E12000EC00FF0106A116A0D3446
:100E10000F3601E310800F50176E1750D8A407D07B
:100E2000000E096E000E0A6E000E0B6E12001750B7
:100E30007B0F12260BC017F00E50171A800E1716D4
:100E40000A8E0D8EFF0E0C16FF0E0D16000E0E16DE
:100E5000000E136E000E146E000E156E070E166E49
:100E600009A006D00C5013260D5014220E50152246
:100E7000D8900B320A320932D8900C360D360E3625
:100E8000162EEED7090E166E09A006D00C501326AA
:100E90000D5014220E501522D8900B320A3209320E
:100EA000D890153214321332162EEED713C001F03B
:100EB00014C002F015C003F012C004F017C005F012
:100EC000DCEC07F001C009F002C00AF003C00BF02F
:100ED00012000EC012F0136A146A0D34123601E3C8
:100EE00013801250196E1950D8A407D0000E0C6E42
:100EF000000E0D6E000E0E6E120011C012F0136A7D
:100F0000146A1034123601E3138012501A6E1A500C
:100F1000D8A407D0000E0C6E000E0D6E000E0E6EE3
:100F20001200000E166E000E176E000E186E1A508C
:100F3000890F195E0EC01AF011501A1A800E1A1677
:100F40000D8EFF0E0C16FF0E0D16000E0E16108ED7
:100F5000FF0E0F16FF0E1016000E1116180E156E4E
:100F6000D8901636173618360F500C5C10500D58A6
:100F700011500E58D8A007D00F500C5E10500D5ACB
:100F800011500E5A1680D8900C360D360E36152E8E
:100F9000E7D716C001F017C002F018C003F019C05F
:100FA00004F01AC005F0DCEC07F001C00CF002C040
:100FB0000DF003C00EF012000450D8B405D001505B
:100FC00002100310D8A40CD0000E016E000E026EA9
:100FD000000E036E1200042AD8900332023201324E
:100FE000000E0114066E000E0214076EFE0E0314AE
:100FF000086E065007100810D8B40CD0ECD7042A9D
:10100000010E0126000E0222000E0322D8900332A8
:1010100002320132000E0114066E000E0214076E39
:10102000FF0E0314086E065007100810D8B406D03F
:10103000E6D70406D89001360236033602BE03D046
:10104000020E0460F6D704A0029ED8900432045029
:1010500003120550D8A4038E01C001F002C002F0B3
:1010600003C003F012003CC00CF03DC00DF03EC0C8
:101070000EF03FC00FF040C010F041C011F069EC1D
:1010800007F00CC042F00DC043F00EC044F042C067
:1010900034F043C035F044C036F080EC08F034C082
:1010A00042F035C043F036C044F03FC00CF040C0C1
:1010B0000DF041C00EF042C009F043C00AF044C038
:1010C0000BF0EFEC06F009C018F00AC019F00BC0E5
:1010D0001AF0C1EC09F018C01BF019C01CF01AC0BE
:1010E0001DF03CC01EF03DC01FF03EC020F0FBECE8
:1010F00004F01BC03CF01CC03DF01DC03EF01200CF
:1011000034C001F035C002F036C003F03A0E046E70
:10111000000E056EC1EC08F03BAE07D0000E346E39
:10112000000E356E000E366E12003B5004E1150EB7
:101130003A5CD8A007D034C034F035C035F036C0A2
:1011400036F0120034C01BF035C01CF036C01DF064
:1011500075EC06F01BC02AF01CC02BF01DC02CF053
:101160001EC02DF0FDEC08F02AC037F02BC038F07F
:101170002CC039F037C034F038C035F039C036F003
:101180001200015002100310D8A409D004C0D9FFE6
:1011900005C0DAFF000EDE6E000EDD6E1200035099
:1011A0007F0B066E076AD8900636073604C0D9FF53
:1011B00005C0DAFF06C0DEFF07C0DDFF02AE03D0C8
:1011C000066A062A01D0066A065004C0D9FF05C087
:1011D000DAFFDE12000EDD1204C0D9FF05C0DAFF0F
:1011E000820EDE26FF0EDD22038003820384038647
:1011F0000388038A039C029E1200000E336E8E0E3B
:10120000326E2DAE11D02D1E2C1E2B1E2A6C000E00
:101210002B222C222D22010E336E06D0D8902D3297
:101220002C322B322A32322A000E2A142E6E000E55
:101230002B142F6E000E2C14306EFF0E2D14316EF9
:101240002E502F1030103110D8A4E8D72AC001F04A
:101250002BC002F02CC003F032C004F033C005F004
:10126000DCEC07F001C02AF002C02BF003C02CF028
:101270001200000E0C6E000E0B6E09500A10D8B44E
:101280001CD0010E0D6E04D0D89009360A360D2AF6
:101290000AAEFAD7D8900B360C360950075C0A50C4
:1012A0000858D8A005D00950075E0A50085A0B808C
:1012B000D8900A3209320D2EEDD70BC007F00CC0C2
:1012C00008F0120010501110D8B418D0010E126E90
:1012D00004D0D89010361136122A11AEFAD7105019
:1012E0000E5C11500F58D8A004D010500E5E115053
:1012F0000F5AD89011321032122EF1D70EC00EF0C4
:101300000FC00FF01200000E026E000E016E02BE42
:1013100006D0025007E1C80E015CD8B003D0014AE4
:10132000022AF5D7000E026E000E016E000E026E4C
:10133000000E016E120092809282D38CD38AD398D1
:10134000C292E5EC09F003EC0AF0C282C282C2B29A
:10135000FED708EC04F0F3EC09F0F7D701500302D4
:10136000F3CF05F0F4CF06F001500402F350062647
:1013700002500302F350062605C001F006C002F039
:101380001200185019101A10D8B406D0000E181AEE
:10139000000E191A800E1A1A18C018F019C019F088
:1013A0001AC01AF0120009C001F00AC002F0036A64
:1013B0008E0E046E000E056EDCEC07F001C009F025
:1013C00002C00AF003C00BF01200949C948E240E0D
:1013D000AC6E900EAB6EB886670EAF6ED08EF28E8E
:1013E0009D8A9F8A1200C204D8A403D0050EC26E43
:1013F0001200010EC26E12005E6A5D6A000EF86E87
:1014000000019BEF09F0950EC06E0D0EC16E010E2E
:10141000C26E1200016E01C0ADFF9EB81200FDD772
:020000040020DA
:08000000FFFFFFFFFFFFFFFF00
:020000040030CA
:0E00000000091F1EFF0181FF0FC00FE00F401F
:00000001FF
